:1000000000000120910100007F0300008103000037
:100010008303000085030000870300000000000048
:100020000000000000000000000000008903000044
:100030008B030000000000008D0300008F03000010
:100040009103000093030000950300009703000054
:10005000990300009B0300009D0300009F03000024
:10006000A1030000A3030000A5030000A7030000F4
:10007000A9030000AB030000AD030000AF030000C4
:10008000B1030000B3030000B5030000B703000094
:10009000B9030000BB030000BD030000BF03000064
:1000A000C1030000C3030000C5030000C703000034
:1000B000C9030000CB030000CD030000CF03000004
:1000C000D1030000D3030000D5030000D7030000D4
:1000D000D9030000DB030000DD030000DF030000A4
:1000E000E1030000E3030000E5030000E703000074
:1000F000E9030000EB030000ED030000EF03000044
:10010000F1030000F3030000F5030000F703000013
:10011000F9030000FB030000FD030000FF030000E3
:1001200001040000030400000504000007040000AF
:10013000090400000B0400000D0400000F0400007F
:10014000110400001304000015040000170400004F
:10015000190400001B0400001D0400001F0400001F
:1001600021040000230400002504000027040000EF
:10017000290400002B0400002D0400002F040000BF
:100180003104000033040000000000000000000003
:100190004FF0000BDFF8BE020068DFF8B612096806
:1001A00001F0030100F01C00142801D14BF0020BF8
:1001B000002901D04BF0010BBBF1000F05D0A7487F
:1001C000A749DFF8722200F09FF8A64880470BF09D
:1001D000020ABAF1000F0CD0DFF86E02DFF86E12DF
:1001E00002680B680FB44FF000024FF0FF0302608B
:1001F0000B609D4800220123022808D1DFF83E123F
:100200000A60DFF842120A60DFF836120B6001283C
:1002100008D1DFF82E120A60DFF82A120A60DFF830
:100220001E120B609148002809D191489149924AC9
:1002300000F032F891489249924A00F02DF8924825
:100240009249934A00F028F892489349DFF8E62152
:1002500000F05AF8BBF1000F12D090489049DFF837
:10026000DA2100F051F80BF0020ABAF1000F07D0C2
:100270000FBC02600B6000BFAFF30080AFF30080E3
:10028000DFF820020FF2030E00474FF000004FF09E
:100290000001DFF814F2FEE72DE9F841884225D08D
:1002A000B2EB010200D5FEE740EA010313F00303BD
:1002B00002D000F01DF819E04FF000039046121133
:1002C000F7D09A421CBFF0C8F0C103F10103F8D186
:1002D00008F00F08B8F1000F08D004780C7000F196
:1002E000010001F10101B8F10108F6D1BDE8F88182
:1002F00008B54FF0000303780B7000F1010001F125
:100300000101013AF7D108BD884237D000F0030659
:10031000002E14D04FF00405A5EB06044FF008079B
:1003200007FB06F8914669FA08F9002C07D080F817
:10033000009069FA07F900F10100013CF5E74FF080
:1003400000060F46091A88460911914614461546BB
:10035000B14206D018BFA0E8340206F10106B1424E
:10036000F8D108F00F08B8F1000F07D002704FEA7B
:10037000322200F10100B8F10108F4E77047FEE70E
:10038000FEE7FEE7FEE7FEE7FEE7FEE7FEE7FEE745
:10039000FEE7FEE7FEE7FEE7FEE7FEE7FEE7FEE735
:1003A000FEE7FEE7FEE7FEE7FEE7FEE7FEE7FEE725
:1003B000FEE7FEE7FEE7FEE7FEE7FEE7FEE7FEE715
:1003C000FEE7FEE7FEE7FEE7FEE7FEE7FEE7FEE705
:1003D000FEE7FEE7FEE7FEE7FEE7FEE7FEE7FEE7F5
:1003E000FEE7FEE7FEE7FEE7FEE7FEE7FEE7FEE7E5
:1003F000FEE7FEE7FEE7FEE7FEE7FEE7FEE7FEE7D5
:10040000FEE7FEE7FEE7FEE7FEE7FEE7FEE7FEE7C4
:10041000FEE7FEE7FEE7FEE7FEE7FEE7FEE7FEE7B4
:10042000FEE7FEE7FEE7FEE7FEE7FEE7FEE7FEE7A4
:10043000FEE7FEE7704700000000A2A2A2A2008033
:100440000340088003401080034030800340348024
:1004500003403880034018080240000000F00020EC
:1004600000000120AD0400000000000001000000B9
:10047000000000600000000090010000D006006055
:10048000D006000070090000700900600000002024
:1004900030040020300400205004002050040020CC
:1004A00000F00020DD070000910700004FF6020277
:1004B000F8B5394BD3F84C1191420BD1D3F89820B1
:1004C00042F48072C3F89820D3F8982022F080621A
:1004D000C3F89820314A3049536943F4007353619B
:1004E0008B6883B1FFF7A6FF2D4B2B481A46816C12
:1004F00021F480318164196841F003011960536867
:10050000DB07FCD5F8BD274B274A1C6802F17203B4
:10051000214632F8020F934241F8040BF9D12348E7
:1005200004F5077233F8021F834242F8041BF9D125
:100530001F4B0122B3F8F470B3F8F660B3F8F8502B
:10054000B3F8FA00B3F8FC10C4F80074C4F80464FB
:10055000B3F8FE70C4F80854B3F80061C4F80C0492
:10056000B3F80251C4F81014B3F80401B3F806113B
:10057000B3F80831C4F81474C4F81864C4F81C54EF
:10058000C4F84004C4F84414C4F848342260D4F8D1
:10059000E430002BFBD0A5E70080034000ED00E035
:1005A00000200240C0060000B2050000A6060000C0
:1005B000B405000000000000880C470102000000A4
:1005C00081009F0900003333FFFF77777707010031
:1005D00000420800330000000000000081022300F8
:1005E00035020200670178011100330D140010007C
:1005F00000330000000014040000000000000200AE
:1006000000008040F8800700F8800700000200002A
:100610000000030003004000000000000000000094
:10062000090301000000000000008000000000003D
:100630000300000000000000000000000B000000AC
:100640000000000000004000010410400000000015
:10065000000000000000000000000000000000009A
:1006600000000000400001041040000000000000F5
:10067000000000000000000000000000000000007A
:1006800000000000400001041040000000000000D5
:100690000000000000002100000003000100010034
:1006A0000000090000000100000000000000000040
:1006B000000000000000000000000000000000003A
:1006C00000080240000000000000000000000000E0
:1006D00010B5054C237833B9044B13B10448AFF37C
:1006E00000800123237010BD3004002000000000B2
:1006F00040090000084B10B51BB108490848AFF38A
:1007000000800848036803B910BD074B002BFBD0DD
:10071000BDE81040184700BF00000000340400206E
:10072000400900000000002000000000164B10B43B
:100730009A6C164942F480129A64986C01F11F0475
:1007400040F0F07098643222012001E011F9012F8D
:1007500053099B0003F1604302F01F0203F561435C
:1007600000FA02F2A142C3F88020C3F88021EDD143
:10077000054B10BC9A6C22F0F0729A649A6C22F4C9
:1007800080129A64704700BF00800340180900007F
:1007900000B583B0FFF7CAFF0E4B4FF05532C3F8D8
:1007A000882072B630BF1A464FF0AA300A49C3F803
:1007B00088000968C9090191019B2BB1019B013B8C
:1007C0000193019B002BF9D1D2F88830DB43C2F8AA
:1007D0008830F0E7003001400400002070B50F4E73
:1007E0000F4D761BB61018BF002405D0013455F804
:1007F000043B9847A642F9D10A4E0B4D00F0A0F8F1
:10080000761BB61018BF002406D0013455F8043BFF
:100810009847A642F9D170BD70BD00BF58090000CD
:10082000580900006009000058090000024B13B18C
:10083000024800F005B87047000000004D080000B5
:10084000002301461A46184600F014B838B5074D83
:10085000074C2C1BA41005D0013C55F8043D9847CB
:10086000002CF9D1BDE8384000F070B864090000F0
:10087000600900002DE9F047254C064625688846AA
:10088000D5F8484192469946C4B360681F2817DCE2
:10089000411C76B104EB8003C3F888A0D4F88851DA
:1008A000012282401543022EC4F88851C3F80891F2
:1008B0001ED0831C6160002044F82380BDE8F087CF
:1008C000144B03B34FF4C870AFF300800446D0B1AB
:1008D000D5F84831002784E888003846C5F84841F3
:1008E0000121C4F88871C4F88C71002EE1D0D1E7E1
:1008F000D4F88C311A43C4F88C21DAE705F5A674D4
:10090000C5F84841C1E74FF0FF30BDE8F08700BFB0
:100910003C090000000000003233343536373839E6
:100920003A3B3C3D3E3F40414243444546474849AF
:100930004A4B4C4D4E4F50514300000008000020E0
:10094000F8B500BFF8BC08BC9E467047F8B500BFBC
:10095000F8BC08BC9E4670472D080000F506000054
:10096000D1060000000000000000000000000000B0
:100970000000000000E1F50500000000F402002086
:100980005C030020C4030020000000000000000001
:100990000000000000000000000000000000000057
:1009A0000000000000000000000000003809000006
:1009B0000000000000000000000000000000000037
:1009C0000000000000000000000000000000000027
:1009D0000000000000000000000000000000000017
:1009E0000000000000000000000000000000000007
:1009F00000000000000000000000000000000000F7
:100A000000000000000000000000000000000000E6
:100A100000000000000000000000000000000000D6
:100A200001000000000000000E33CDAB34126DE673
:100A3000ECDE05000B0000000000000000000000DC
:100A400000000000000000000000000000000000A6
:100A50000000000000000000000000000000000096
:100A60000000000000000000000000000000000086
:100A70000000000000000000000000000000000076
:040000030000019167
:00000001FF
